{
    "_format": "hh-sol-artifact-1",
    "contractName": "NFTx",
    "sourceName": "contracts/NFTx.sol",
    "abi": [
        {
            "inputs": [],
            "stateMutability": "nonpayable",
            "type": "constructor"
        },
        {
            "anonymous": false,
            "inputs": [
                {
                    "indexed": true,
                    "internalType": "address",
                    "name": "owner",
                    "type": "address"
                },
                {
                    "indexed": true,
                    "internalType": "address",
                    "name": "approved",
                    "type": "address"
                },
                {
                    "indexed": true,
                    "internalType": "uint256",
                    "name": "tokenId",
                    "type": "uint256"
                }
            ],
            "name": "Approval",
            "type": "event"
        },
        {
            "anonymous": false,
            "inputs": [
                {
                    "indexed": true,
                    "internalType": "address",
                    "name": "owner",
                    "type": "address"
                },
                {
                    "indexed": true,
                    "internalType": "address",
                    "name": "operator",
                    "type": "address"
                },
                {
                    "indexed": false,
                    "internalType": "bool",
                    "name": "approved",
                    "type": "bool"
                }
            ],
            "name": "ApprovalForAll",
            "type": "event"
        },
        {
            "anonymous": false,
            "inputs": [
                {
                    "indexed": true,
                    "internalType": "address",
                    "name": "previousOwner",
                    "type": "address"
                },
                {
                    "indexed": true,
                    "internalType": "address",
                    "name": "newOwner",
                    "type": "address"
                }
            ],
            "name": "OwnershipTransferred",
            "type": "event"
        },
        {
            "anonymous": false,
            "inputs": [
                {
                    "indexed": true,
                    "internalType": "address",
                    "name": "from",
                    "type": "address"
                },
                {
                    "indexed": true,
                    "internalType": "address",
                    "name": "to",
                    "type": "address"
                },
                {
                    "indexed": true,
                    "internalType": "uint256",
                    "name": "tokenId",
                    "type": "uint256"
                }
            ],
            "name": "Transfer",
            "type": "event"
        },
        {
            "inputs": [
                {
                    "internalType": "address",
                    "name": "to",
                    "type": "address"
                },
                {
                    "internalType": "uint256",
                    "name": "tokenId",
                    "type": "uint256"
                }
            ],
            "name": "approve",
            "outputs": [],
            "stateMutability": "nonpayable",
            "type": "function"
        },
        {
            "inputs": [],
            "name": "availableTickets",
            "outputs": [
                {
                    "internalType": "uint256",
                    "name": "",
                    "type": "uint256"
                }
            ],
            "stateMutability": "view",
            "type": "function"
        },
        {
            "inputs": [
                {
                    "internalType": "address",
                    "name": "owner",
                    "type": "address"
                }
            ],
            "name": "balanceOf",
            "outputs": [
                {
                    "internalType": "uint256",
                    "name": "",
                    "type": "uint256"
                }
            ],
            "stateMutability": "view",
            "type": "function"
        },
        {
            "inputs": [],
            "name": "closeSale",
            "outputs": [],
            "stateMutability": "nonpayable",
            "type": "function"
        },
        {
            "inputs": [],
            "name": "displayAvailableTickets",
            "outputs": [
                {
                    "internalType": "uint256",
                    "name": "",
                    "type": "uint256"
                }
            ],
            "stateMutability": "view",
            "type": "function"
        },
        {
            "inputs": [],
            "name": "displayTotalTickets",
            "outputs": [
                {
                    "internalType": "uint256",
                    "name": "",
                    "type": "uint256"
                }
            ],
            "stateMutability": "view",
            "type": "function"
        },
        {
            "inputs": [
                {
                    "internalType": "uint256",
                    "name": "tokenId",
                    "type": "uint256"
                }
            ],
            "name": "getApproved",
            "outputs": [
                {
                    "internalType": "address",
                    "name": "",
                    "type": "address"
                }
            ],
            "stateMutability": "view",
            "type": "function"
        },
        {
            "inputs": [
                {
                    "internalType": "address",
                    "name": "",
                    "type": "address"
                },
                {
                    "internalType": "uint256",
                    "name": "",
                    "type": "uint256"
                }
            ],
            "name": "holderTokenIDs",
            "outputs": [
                {
                    "internalType": "uint256",
                    "name": "",
                    "type": "uint256"
                }
            ],
            "stateMutability": "view",
            "type": "function"
        },
        {
            "inputs": [
                {
                    "internalType": "address",
                    "name": "owner",
                    "type": "address"
                },
                {
                    "internalType": "address",
                    "name": "operator",
                    "type": "address"
                }
            ],
            "name": "isApprovedForAll",
            "outputs": [
                {
                    "internalType": "bool",
                    "name": "",
                    "type": "bool"
                }
            ],
            "stateMutability": "view",
            "type": "function"
        },
        {
            "inputs": [],
            "name": "mint",
            "outputs": [],
            "stateMutability": "payable",
            "type": "function"
        },
        {
            "inputs": [],
            "name": "mintPrice",
            "outputs": [
                {
                    "internalType": "uint256",
                    "name": "",
                    "type": "uint256"
                }
            ],
            "stateMutability": "view",
            "type": "function"
        },
        {
            "inputs": [],
            "name": "name",
            "outputs": [
                {
                    "internalType": "string",
                    "name": "",
                    "type": "string"
                }
            ],
            "stateMutability": "view",
            "type": "function"
        },
        {
            "inputs": [],
            "name": "openSale",
            "outputs": [],
            "stateMutability": "nonpayable",
            "type": "function"
        },
        {
            "inputs": [],
            "name": "owner",
            "outputs": [
                {
                    "internalType": "address",
                    "name": "",
                    "type": "address"
                }
            ],
            "stateMutability": "view",
            "type": "function"
        },
        {
            "inputs": [
                {
                    "internalType": "uint256",
                    "name": "tokenId",
                    "type": "uint256"
                }
            ],
            "name": "ownerOf",
            "outputs": [
                {
                    "internalType": "address",
                    "name": "",
                    "type": "address"
                }
            ],
            "stateMutability": "view",
            "type": "function"
        },
        {
            "inputs": [],
            "name": "renounceOwnership",
            "outputs": [],
            "stateMutability": "nonpayable",
            "type": "function"
        },
        {
            "inputs": [
                {
                    "internalType": "address",
                    "name": "from",
                    "type": "address"
                },
                {
                    "internalType": "address",
                    "name": "to",
                    "type": "address"
                },
                {
                    "internalType": "uint256",
                    "name": "tokenId",
                    "type": "uint256"
                }
            ],
            "name": "safeTransferFrom",
            "outputs": [],
            "stateMutability": "nonpayable",
            "type": "function"
        },
        {
            "inputs": [
                {
                    "internalType": "address",
                    "name": "from",
                    "type": "address"
                },
                {
                    "internalType": "address",
                    "name": "to",
                    "type": "address"
                },
                {
                    "internalType": "uint256",
                    "name": "tokenId",
                    "type": "uint256"
                },
                {
                    "internalType": "bytes",
                    "name": "_data",
                    "type": "bytes"
                }
            ],
            "name": "safeTransferFrom",
            "outputs": [],
            "stateMutability": "nonpayable",
            "type": "function"
        },
        {
            "inputs": [],
            "name": "saleIsActive",
            "outputs": [
                {
                    "internalType": "bool",
                    "name": "",
                    "type": "bool"
                }
            ],
            "stateMutability": "view",
            "type": "function"
        },
        {
            "inputs": [
                {
                    "internalType": "address",
                    "name": "operator",
                    "type": "address"
                },
                {
                    "internalType": "bool",
                    "name": "approved",
                    "type": "bool"
                }
            ],
            "name": "setApprovalForAll",
            "outputs": [],
            "stateMutability": "nonpayable",
            "type": "function"
        },
        {
            "inputs": [
                {
                    "internalType": "bytes4",
                    "name": "interfaceId",
                    "type": "bytes4"
                }
            ],
            "name": "supportsInterface",
            "outputs": [
                {
                    "internalType": "bool",
                    "name": "",
                    "type": "bool"
                }
            ],
            "stateMutability": "view",
            "type": "function"
        },
        {
            "inputs": [],
            "name": "symbol",
            "outputs": [
                {
                    "internalType": "string",
                    "name": "",
                    "type": "string"
                }
            ],
            "stateMutability": "view",
            "type": "function"
        },
        {
            "inputs": [
                {
                    "internalType": "uint256",
                    "name": "tokenId",
                    "type": "uint256"
                }
            ],
            "name": "tokenURI",
            "outputs": [
                {
                    "internalType": "string",
                    "name": "",
                    "type": "string"
                }
            ],
            "stateMutability": "view",
            "type": "function"
        },
        {
            "inputs": [],
            "name": "totalTickets",
            "outputs": [
                {
                    "internalType": "uint256",
                    "name": "",
                    "type": "uint256"
                }
            ],
            "stateMutability": "view",
            "type": "function"
        },
        {
            "inputs": [
                {
                    "internalType": "address",
                    "name": "from",
                    "type": "address"
                },
                {
                    "internalType": "address",
                    "name": "to",
                    "type": "address"
                },
                {
                    "internalType": "uint256",
                    "name": "tokenId",
                    "type": "uint256"
                }
            ],
            "name": "transferFrom",
            "outputs": [],
            "stateMutability": "nonpayable",
            "type": "function"
        },
        {
            "inputs": [
                {
                    "internalType": "address",
                    "name": "newOwner",
                    "type": "address"
                }
            ],
            "name": "transferOwnership",
            "outputs": [],
            "stateMutability": "nonpayable",
            "type": "function"
        }
    ],
    "bytecode": "0x60806040526009805460ff19169055600a808055600b5567016345785d8a0000600c553480156200002f57600080fd5b5060408051808201825260048082526309c8ca8f60e31b6020808401828152855180870190965292855284015281519192916200006f916000916200011e565b508051620000859060019060208401906200011e565b505050620000a26200009c620000bf60201b60201c565b620000c3565b620000b960086200011560201b62000d841760201c565b62000201565b3390565b600780546001600160a01b038381166001600160a01b0319831681179093556040519116919082907f8be0079c531659141344cd1fd0a4f28419497f9722a3daafe3b4186f6b6457e090600090a35050565b80546001019055565b8280546200012c90620001c4565b90600052602060002090601f0160209004810192826200015057600085556200019b565b82601f106200016b57805160ff19168380011785556200019b565b828001600101855582156200019b579182015b828111156200019b5782518255916020019190600101906200017e565b50620001a9929150620001ad565b5090565b5b80821115620001a95760008155600101620001ae565b600181811c90821680620001d957607f821691505b60208210811415620001fb57634e487b7160e01b600052602260045260246000fd5b50919050565b61208080620002116000396000f3fe6080604052600436106101815760003560e01c806382ac0bb8116100d1578063c87b56dd1161008a578063e985e9c511610064578063e985e9c514610416578063eb8d24441461045f578063ee55efee14610479578063f2fde38b1461048e57600080fd5b8063c87b56dd146103cb578063dd11247e146103eb578063e4aee0761461040157600080fd5b806382ac0bb8146103235780638da5cb5b1461034357806395d89b4114610361578063a180959d14610376578063a22cb4651461038b578063b88d4fde146103ab57600080fd5b806323b872dd1161013e5780636352211e116101185780636352211e146102b85780636817c76c146102d857806370a08231146102ee578063715018a61461030e57600080fd5b806323b872dd146102545780633cfa7e011461027457806342842e0e1461029857600080fd5b806301ffc9a71461018657806306fdde03146101bb578063081812fc146101dd578063095ea7b3146102155780631249c58b14610237578063167ff46f1461023f575b600080fd5b34801561019257600080fd5b506101a66101a1366004611b44565b6104ae565b60405190151581526020015b60405180910390f35b3480156101c757600080fd5b506101d0610500565b6040516101b29190611dcf565b3480156101e957600080fd5b506101fd6101f8366004611b7c565b610592565b6040516001600160a01b0390911681526020016101b2565b34801561022157600080fd5b50610235610230366004611b1b565b61061f565b005b610235610735565b34801561024b57600080fd5b506102356108fc565b34801561026057600080fd5b5061023561026f3660046119d1565b610935565b34801561028057600080fd5b5061028a600b5481565b6040519081526020016101b2565b3480156102a457600080fd5b506102356102b33660046119d1565b610966565b3480156102c457600080fd5b506101fd6102d3366004611b7c565b610981565b3480156102e457600080fd5b5061028a600c5481565b3480156102fa57600080fd5b5061028a610309366004611985565b6109f8565b34801561031a57600080fd5b50610235610a7f565b34801561032f57600080fd5b5061028a61033e366004611b1b565b610ab5565b34801561034f57600080fd5b506007546001600160a01b03166101fd565b34801561036d57600080fd5b506101d0610ae6565b34801561038257600080fd5b50600b5461028a565b34801561039757600080fd5b506102356103a6366004611ae1565b610af5565b3480156103b757600080fd5b506102356103c6366004611a0c565b610b04565b3480156103d757600080fd5b506101d06103e6366004611b7c565b610b3c565b3480156103f757600080fd5b5061028a600a5481565b34801561040d57600080fd5b50600a5461028a565b34801561042257600080fd5b506101a661043136600461199f565b6001600160a01b03918216600090815260056020908152604080832093909416825291909152205460ff1690565b34801561046b57600080fd5b506009546101a69060ff1681565b34801561048557600080fd5b50610235610cb3565b34801561049a57600080fd5b506102356104a9366004611985565b610ce9565b60006001600160e01b031982166380ac58cd60e01b14806104df57506001600160e01b03198216635b5e139f60e01b145b806104fa57506301ffc9a760e01b6001600160e01b03198316145b92915050565b60606000805461050f90611f48565b80601f016020809104026020016040519081016040528092919081815260200182805461053b90611f48565b80156105885780601f1061055d57610100808354040283529160200191610588565b820191906000526020600020905b81548152906001019060200180831161056b57829003601f168201915b5050505050905090565b600061059d82610d8d565b6106035760405162461bcd60e51b815260206004820152602c60248201527f4552433732313a20617070726f76656420717565727920666f72206e6f6e657860448201526b34b9ba32b73a103a37b5b2b760a11b60648201526084015b60405180910390fd5b506000908152600460205260409020546001600160a01b031690565b600061062a82610981565b9050806001600160a01b0316836001600160a01b031614156106985760405162461bcd60e51b815260206004820152602160248201527f4552433732313a20617070726f76616c20746f2063757272656e74206f776e656044820152603960f91b60648201526084016105fa565b336001600160a01b03821614806106b457506106b48133610431565b6107265760405162461bcd60e51b815260206004820152603860248201527f4552433732313a20617070726f76652063616c6c6572206973206e6f74206f7760448201527f6e6572206e6f7220617070726f76656420666f7220616c6c000000000000000060648201526084016105fa565b6107308383610daa565b505050565b6000600b54116107875760405162461bcd60e51b815260206004820152601960248201527f5469636b65747320617265206e6f7420617661696c61626c650000000000000060448201526064016105fa565b600c543410156107cb5760405162461bcd60e51b815260206004820152600f60248201526e4e6f7420656e6f756768204554482160881b60448201526064016105fa565b60095460ff1661081d5760405162461bcd60e51b815260206004820152601860248201527f5469636b65747320617265206e6f74206f6e2073616c6521000000000000000060448201526064016105fa565b600061085761083361082e60085490565b610e18565b6040516020016108439190611bef565b604051602081830303815290604052610f32565b905060008160405160200161086c9190611d4d565b604051602081830303815290604052905061088f3361088a60085490565b6110a6565b610898816110c0565b6108aa6108a460085490565b82611103565b336000908152600d60205260409020600854815460018101835560009283526020909220909101556108e0600880546001019055565b6001600b60008282546108f39190611f05565b90915550505050565b6007546001600160a01b031633146109265760405162461bcd60e51b81526004016105fa90611e34565b6009805460ff19166001179055565b61093f338261118e565b61095b5760405162461bcd60e51b81526004016105fa90611e69565b610730838383611274565b61073083838360405180602001604052806000815250610b04565b6000818152600260205260408120546001600160a01b0316806104fa5760405162461bcd60e51b815260206004820152602960248201527f4552433732313a206f776e657220717565727920666f72206e6f6e657869737460448201526832b73a103a37b5b2b760b91b60648201526084016105fa565b60006001600160a01b038216610a635760405162461bcd60e51b815260206004820152602a60248201527f4552433732313a2062616c616e636520717565727920666f7220746865207a65604482015269726f206164647265737360b01b60648201526084016105fa565b506001600160a01b031660009081526003602052604090205490565b6007546001600160a01b03163314610aa95760405162461bcd60e51b81526004016105fa90611e34565b610ab36000611410565b565b600d6020528160005260406000208181548110610ad157600080fd5b90600052602060002001600091509150505481565b60606001805461050f90611f48565b610b00338383611462565b5050565b610b0e338361118e565b610b2a5760405162461bcd60e51b81526004016105fa90611e69565b610b3684848484611531565b50505050565b6060610b4782610d8d565b610bad5760405162461bcd60e51b815260206004820152603160248201527f45524337323155524953746f726167653a2055524920717565727920666f72206044820152703737b732bc34b9ba32b73a103a37b5b2b760791b60648201526084016105fa565b60008281526006602052604081208054610bc690611f48565b80601f0160208091040260200160405190810160405280929190818152602001828054610bf290611f48565b8015610c3f5780601f10610c1457610100808354040283529160200191610c3f565b820191906000526020600020905b815481529060010190602001808311610c2257829003601f168201915b505050505090506000610c5d60408051602081019091526000815290565b9050805160001415610c70575092915050565b815115610ca2578082604051602001610c8a929190611bc0565b60405160208183030381529060405292505050919050565b610cab84611564565b949350505050565b6007546001600160a01b03163314610cdd5760405162461bcd60e51b81526004016105fa90611e34565b6009805460ff19169055565b6007546001600160a01b03163314610d135760405162461bcd60e51b81526004016105fa90611e34565b6001600160a01b038116610d785760405162461bcd60e51b815260206004820152602660248201527f4f776e61626c653a206e6577206f776e657220697320746865207a65726f206160448201526564647265737360d01b60648201526084016105fa565b610d8181611410565b50565b80546001019055565b6000908152600260205260409020546001600160a01b0316151590565b600081815260046020526040902080546001600160a01b0319166001600160a01b0384169081179091558190610ddf82610981565b6001600160a01b03167f8c5be1e5ebec7d5bd14f71427d1e84f3dd0314c0f7b2291e5b200ac8c7c3b92560405160405180910390a45050565b606081610e3c5750506040805180820190915260018152600360fc1b602082015290565b8160005b8115610e665780610e5081611f83565b9150610e5f9050600a83611ed2565b9150610e40565b60008167ffffffffffffffff811115610e8f57634e487b7160e01b600052604160045260246000fd5b6040519080825280601f01601f191660200182016040528015610eb9576020820181803683370190505b5090505b8415610cab57610ece600183611f05565b9150610edb600a86611f9e565b610ee6906030611eba565b60f81b818381518110610f0957634e487b7160e01b600052603260045260246000fd5b60200101906001600160f81b031916908160001a905350610f2b600a86611ed2565b9450610ebd565b805160609080610f52575050604080516020810190915260008152919050565b60006003610f61836002611eba565b610f6b9190611ed2565b610f76906004611ee6565b90506000610f85826020611eba565b67ffffffffffffffff811115610fab57634e487b7160e01b600052604160045260246000fd5b6040519080825280601f01601f191660200182016040528015610fd5576020820181803683370190505b509050600060405180606001604052806040815260200161200b604091399050600181016020830160005b86811015611061576003818a01810151603f601282901c8116860151600c83901c8216870151600684901c831688015192909316870151600891821b60ff94851601821b92841692909201901b91160160e01b835260049092019101611000565b50600386066001811461107b576002811461108c57611098565b613d3d60f01b600119830152611098565b603d60f81b6000198301525b505050918152949350505050565b610b0082826040518060200160405280600081525061163c565b610d81816040516024016110d49190611dcf565b60408051601f198184030181529190526020810180516001600160e01b031663104c13eb60e21b17905261166f565b61110c82610d8d565b61116f5760405162461bcd60e51b815260206004820152602e60248201527f45524337323155524953746f726167653a2055524920736574206f66206e6f6e60448201526d32bc34b9ba32b73a103a37b5b2b760911b60648201526084016105fa565b60008281526006602090815260409091208251610730928401906118d0565b600061119982610d8d565b6111fa5760405162461bcd60e51b815260206004820152602c60248201527f4552433732313a206f70657261746f7220717565727920666f72206e6f6e657860448201526b34b9ba32b73a103a37b5b2b760a11b60648201526084016105fa565b600061120583610981565b9050806001600160a01b0316846001600160a01b031614806112405750836001600160a01b031661123584610592565b6001600160a01b0316145b80610cab57506001600160a01b0380821660009081526005602090815260408083209388168352929052205460ff16610cab565b826001600160a01b031661128782610981565b6001600160a01b0316146112eb5760405162461bcd60e51b815260206004820152602560248201527f4552433732313a207472616e736665722066726f6d20696e636f72726563742060448201526437bbb732b960d91b60648201526084016105fa565b6001600160a01b03821661134d5760405162461bcd60e51b8152602060048201526024808201527f4552433732313a207472616e7366657220746f20746865207a65726f206164646044820152637265737360e01b60648201526084016105fa565b611358600082610daa565b6001600160a01b0383166000908152600360205260408120805460019290611381908490611f05565b90915550506001600160a01b03821660009081526003602052604081208054600192906113af908490611eba565b909155505060008181526002602052604080822080546001600160a01b0319166001600160a01b0386811691821790925591518493918716917fddf252ad1be2c89b69c2b068fc378daa952ba7f163c4a11628f55a4df523b3ef91a4505050565b600780546001600160a01b038381166001600160a01b0319831681179093556040519116919082907f8be0079c531659141344cd1fd0a4f28419497f9722a3daafe3b4186f6b6457e090600090a35050565b816001600160a01b0316836001600160a01b031614156114c45760405162461bcd60e51b815260206004820152601960248201527f4552433732313a20617070726f766520746f2063616c6c65720000000000000060448201526064016105fa565b6001600160a01b03838116600081815260056020908152604080832094871680845294825291829020805460ff191686151590811790915591519182527f17307eab39ab6107e8899845ad3d59bd9653f200f220920489ca2b5937696c31910160405180910390a3505050565b61153c848484611274565b61154884848484611690565b610b365760405162461bcd60e51b81526004016105fa90611de2565b606061156f82610d8d565b6115d35760405162461bcd60e51b815260206004820152602f60248201527f4552433732314d657461646174613a2055524920717565727920666f72206e6f60448201526e3732bc34b9ba32b73a103a37b5b2b760891b60648201526084016105fa565b60006115ea60408051602081019091526000815290565b9050600081511161160a5760405180602001604052806000815250611635565b8061161484610e18565b604051602001611625929190611bc0565b6040516020818303038152906040525b9392505050565b611646838361179d565b6116536000848484611690565b6107305760405162461bcd60e51b81526004016105fa90611de2565b80516a636f6e736f6c652e6c6f67602083016000808483855afa5050505050565b60006001600160a01b0384163b1561179257604051630a85bd0160e11b81526001600160a01b0385169063150b7a02906116d4903390899088908890600401611d92565b602060405180830381600087803b1580156116ee57600080fd5b505af192505050801561171e575060408051601f3d908101601f1916820190925261171b91810190611b60565b60015b611778573d80801561174c576040519150601f19603f3d011682016040523d82523d6000602084013e611751565b606091505b5080516117705760405162461bcd60e51b81526004016105fa90611de2565b805181602001fd5b6001600160e01b031916630a85bd0160e11b149050610cab565b506001949350505050565b6001600160a01b0382166117f35760405162461bcd60e51b815260206004820181905260248201527f4552433732313a206d696e7420746f20746865207a65726f206164647265737360448201526064016105fa565b6117fc81610d8d565b156118495760405162461bcd60e51b815260206004820152601c60248201527f4552433732313a20746f6b656e20616c7265616479206d696e7465640000000060448201526064016105fa565b6001600160a01b0382166000908152600360205260408120805460019290611872908490611eba565b909155505060008181526002602052604080822080546001600160a01b0319166001600160a01b03861690811790915590518392907fddf252ad1be2c89b69c2b068fc378daa952ba7f163c4a11628f55a4df523b3ef908290a45050565b8280546118dc90611f48565b90600052602060002090601f0160209004810192826118fe5760008555611944565b82601f1061191757805160ff1916838001178555611944565b82800160010185558215611944579182015b82811115611944578251825591602001919060010190611929565b50611950929150611954565b5090565b5b808211156119505760008155600101611955565b80356001600160a01b038116811461198057600080fd5b919050565b600060208284031215611996578081fd5b61163582611969565b600080604083850312156119b1578081fd5b6119ba83611969565b91506119c860208401611969565b90509250929050565b6000806000606084860312156119e5578081fd5b6119ee84611969565b92506119fc60208501611969565b9150604084013590509250925092565b60008060008060808587031215611a21578081fd5b611a2a85611969565b9350611a3860208601611969565b925060408501359150606085013567ffffffffffffffff80821115611a5b578283fd5b818701915087601f830112611a6e578283fd5b813581811115611a8057611a80611fde565b604051601f8201601f19908116603f01168101908382118183101715611aa857611aa8611fde565b816040528281528a6020848701011115611ac0578586fd5b82602086016020830137918201602001949094529598949750929550505050565b60008060408385031215611af3578182fd5b611afc83611969565b915060208301358015158114611b10578182fd5b809150509250929050565b60008060408385031215611b2d578182fd5b611b3683611969565b946020939093013593505050565b600060208284031215611b55578081fd5b813561163581611ff4565b600060208284031215611b71578081fd5b815161163581611ff4565b600060208284031215611b8d578081fd5b5035919050565b60008151808452611bac816020860160208601611f1c565b601f01601f19169290920160200192915050565b60008351611bd2818460208801611f1c565b835190830190611be6818360208801611f1c565b01949350505050565b707b20226e616d65223a20224e465478202360781b81528151600090611c1c816011850160208701611f1c565b7f222c20226465736372697074696f6e223a202241204e46542d706f77657265646011939091019283015250730103a34b1b5b2ba34b7339039bcb9ba32b69116160651b60318201527f22747261697473223a205b7b202274726169745f74797065223a20224368656360458201527f6b656420496e222c202276616c7565223a202266616c736522207d2c207b202260658201527f74726169745f74797065223a2022507572636861736564222c202276616c756560858201526d0111d10113a393ab291103eae96160951b60a58201527f22696d616765223a2022697066733a2f2f516d507755505148464b46765a6a6d60b38201527f79743373616d435154507962326d72366d4e6f754d6338347857647946486a2260d382015261207d60f01b60f382015260f501919050565b7f646174613a6170706c69636174696f6e2f6a736f6e3b6261736536342c000000815260008251611d8581601d850160208701611f1c565b91909101601d0192915050565b6001600160a01b0385811682528416602082015260408101839052608060608201819052600090611dc590830184611b94565b9695505050505050565b6020815260006116356020830184611b94565b60208082526032908201527f4552433732313a207472616e7366657220746f206e6f6e20455243373231526560408201527131b2b4bb32b91034b6b83632b6b2b73a32b960711b606082015260800190565b6020808252818101527f4f776e61626c653a2063616c6c6572206973206e6f7420746865206f776e6572604082015260600190565b60208082526031908201527f4552433732313a207472616e736665722063616c6c6572206973206e6f74206f6040820152701ddb995c881b9bdc88185c1c1c9bdd9959607a1b606082015260800190565b60008219821115611ecd57611ecd611fb2565b500190565b600082611ee157611ee1611fc8565b500490565b6000816000190483118215151615611f0057611f00611fb2565b500290565b600082821015611f1757611f17611fb2565b500390565b60005b83811015611f37578181015183820152602001611f1f565b83811115610b365750506000910152565b600181811c90821680611f5c57607f821691505b60208210811415611f7d57634e487b7160e01b600052602260045260246000fd5b50919050565b6000600019821415611f9757611f97611fb2565b5060010190565b600082611fad57611fad611fc8565b500690565b634e487b7160e01b600052601160045260246000fd5b634e487b7160e01b600052601260045260246000fd5b634e487b7160e01b600052604160045260246000fd5b6001600160e01b031981168114610d8157600080fdfe4142434445464748494a4b4c4d4e4f505152535455565758595a6162636465666768696a6b6c6d6e6f707172737475767778797a303132333435363738392b2fa264697066735822122021ad75b592ed5031f4d50b18bc55be24a2e17b3911f6ba5e9da52d324521ba2264736f6c63430008040033",
    "linkReferences": {},
    "deployedLinkReferences": {}
}